:030000000200A259
:0C00A200787FE4F6D8FD7581170200E9B4
:10027500C0F9A4B0999282F880908883C6A1868E31
:010285000078
:10025B00010C01020D0000020A0000021300000253
:09026B00150000040F0000000062
:100240001202B112028620B01112000E20B104D2A7
:0B025000AF8002C2AF1201F680EC226A
:1001F600E4F517C3E517940474809480503BE51723
:1002060014600E14601314601424037016C2A080C8
:1002160002D2A0C2A1C2A2800AC2A08002D2A0D2EB
:10022600A1C2A2740F2517F8E6F5807F467E00125C
:0902360002A67580FF051780BACD
:01023F00229C
:0702B100D288D2A8D2AF22CF
:10028600438901758CFC758A18D2A9D2AFD28C220B
:10000E00C3E514950EFFE513950DFED3EF9400EEA8
:10001E00940040028012C3E49514FFE49513FEC3CE
:10002E00EF950EFFEE950DFED3EF94F0EE9400409B
:10003E0003750C01E50C605BAE15AF167C007D0AF6
:10004E001201408D17AE15AF167C007D0A120140CD
:10005E007C007D0A120140AB05AE15AF167C007D0B
:10006E00641201407C007D0A120140AA05AE15AF54
:10007E00167C037DE8120140E51790027593F51288
:10008E00AE03EE93F511AE02EE93F510EF93F50F6E
:03009E00E4F50C7A
:0100A100223C
:0B02A600EF1FAC0670011E4C70F6222A
:0300030002029660
:10029600C0E020B208050BE50B7002050AD0E0327B
:03000B000201955A
:10019500C0E0C0F0C0D075D000C000C004C005C02C
:0301A50006C0078A
:1001A800758CFC758A180509E50970020508B4E81C
:1001B8002CE508B40327750800750900AE0AAF0BD3
:1001C8007C007D3C12012E8E0D8F0E850D13850E41
:0D01D80014850D15850E16750A00750B00B7
:1001E500D007D006D005D004D000D0D0D0F0D0E0D4
:0101F50032D7
:1000AE00020240E493A3F8E493A34003F68001F226
:1000BE0008DFF48029E493A3F85407240CC8C33353
:1000CE00C4540F4420C8834004F456800146F6DF22
:1000DE00E4800B010204081020408090025BE47E55
:1000EE00019360BCA3FF543F30E509541FFEE49317
:1000FE00A360010ECF54C025E060A840B8E493A3DE
:10010E00FAE493A3F8E493A3C8C582C8CAC583CA08
:10011E00F0A3C8C582C8CAC583CADFE9DEE780BEC0
:010274000089
:10012E00EF8DF0A4A8F0CF8CF0A428CE8DF0A42EE5
:02013E00FE229F
:10014000BC000BBE0029EF8DF084FFADF022E4CCA3
:10015000F875F008EF2FFFEE33FEEC33FCEE9DEC6C
:10016000984005FCEE9DFE0FD5F0E9E4CEFD22EDB2
:10017000F8F5F0EE8420D21CFEADF075F008EF2FFC
:10018000FFED33FD4007985006D5F0F222C398FDED
:050190000FD5F0EA228A
:00000001FF
